:100000000C943C000C94A9010C94EF010C94590041
:100010000C9446030C9442020C9459000C94590021
:100020000C9459000C9459000C9459000C94400401
:100030000C9459000C9459000C9459000C945900DC
:100040000C9459000C9459000C9459000C945900CC
:100050000C9459000C9459000C9459000C945900BC
:100060000C9459000C945900720372037F0393039C
:10007000B5039F03A503AB0311241FBECFEFD8E048
:10008000DEBFCDBF11E0A0E0B1E0EEE3FAE002C0D8
:1000900005900D92AA30B107D9F721E0AAE0B1E0AE
:1000A00001C01D92A033B207E1F70E94A7040C948F
:1000B0001D050C940000ECE7F0E08081806C8083EB
:1000C000808185608083EAE7F0E08081876A8083B1
:1000D0000895E1E8F0E080818C60808384EF809374
:1000E000890083E280938800EFE6F0E080818260FF
:1000F0008083789408958F929F92AF92BF92CF920F
:10010000DF92EF92FF9281E090E090931301809351
:100110001201C0901401D0901501E0901601F090EA
:100120001701C701B60120E13EE040E050E00E9427
:10013000F504CA01B9012DE030E040E050E00E9432
:10014000F50470930F0160930E01C701B6012CE313
:1001500030E040E050E00E94F5048DE3882E912CC1
:10016000A12CB12CCA01B901A50194010E94F5048A
:1001700070930D0160930C01C701B601A5019401B4
:100180000E94F50470930B0160930A01FF90EF90B9
:10019000DF90CF90BF90AF909F908F900895109276
:1001A000110110921001109213011092120110927D
:1001B00018011092190110921A0110921B01089552
:1001C000289A2FEF83EC99E0215080409040E1F78E
:1001D00000C0000028982FEF83EC99E02150804068
:1001E0009040E1F700C0000008958F929F92AF9277
:1001F000BF92CF92DF92EF92FF92609122017091B5
:100200002301809124019091250120E831E541E00E
:1002100050E00E94F5046B017C0160932201709311
:100220002301809324019093250120E13EE040E0EA
:1002300050E00E94F504CA01B9012CE030E040E032
:1002400050E00E94F5046F5F7F4F70930701609349
:100250000601C701B6012CE330E040E050E00E9407
:10026000F5048DE3882E912CA12CB12CCA01B90183
:10027000A50194010E94F50470932101609320016F
:10028000C701B601A50194010E94F50470931F01F6
:1002900060931E01FF90EF90DF90CF90BF90AF90E2
:1002A0009F908F900895EF92FF920F931F9360910C
:1002B00022017091230180912401909125012FE763
:1002C00031E541E050E00E94F50480911C019091DD
:1002D0001D0179018A01E80EF91E011D111DC801D9
:1002E000B70129E631E040E050E00E94F5049B01AF
:1002F00070931D0160931C01109203011092020182
:10030000CB016DE070E00E94E10470930101609305
:100310000001C9016FE170E00E94E10490930501C2
:10032000809304011F910F91FF90EF9008958091A9
:100330007A00806480937A0080917A0086FDFCCFF9
:100340008091780090917900909327018093260105
:1003500008951F920F920FB60F9211242F933F937F
:100360004F935F936F937F938F939F93AF93BF93BD
:10037000EF93FF938091100190911101019711F477
:100380000E94CF0080912C0190912D0101966091E7
:100390000801709109010E94E10490932D0180935E
:1003A0002C0110922901109228012FEF89E698E183
:1003B000215080409040E1F700C00000FF91EF9194
:1003C000BF91AF919F918F917F916F915F914F916D
:1003D0003F912F910F900FBE0F901F9018951F9275
:1003E0000F920FB60F9211242F933F934F935F9369
:1003F0006F937F938F939F93AF93BF93EF93FF93ED
:100400008091100190911101019711F40E94CF0089
:1004100080912C0190912D01009729F0019749F4CA
:1004200086E090E002C088E090E090932B018093FA
:100430002A018091280190912901019660912A0159
:1004400070912B010E94E10490932901809328016F
:100450002FEF89E698E1215080409040E1F700C0FD
:100460000000FF91EF91BF91AF919F918F917F918C
:100470006F915F914F913F912F910F900FBE0F9011
:100480001F9018951F920F920FB60F9211242F9361
:100490003F934F935F936F937F938F939F93AF930C
:1004A000BF93EF93FF9380911001909111010197F9
:1004B00011F40E94CF0080912C0190912D010097A2
:1004C00009F05EC080912801909129018330910547
:1004D00071F190F481309105E9F0029709F04BC079
:1004E0008091220190912301A0912401B0912501D6
:1004F000CC96A11DB11D26C08630910561F18730D3
:10050000910579F10597B9F580911C0190911D0134
:1005100001962DC08091220190912301A091240188
:10052000B0912501805F914FAF4FBF4F0BC08091BD
:10053000220190912301A0912401B09125010196FF
:10054000A11DB11D8093220190932301A09324014A
:10055000B093250110C080911C0190911D014E9611
:1005600006C080911C0190911D0188599E4F909367
:100570001D0180931C010E9453010E94F5006CC074
:10058000019709F069C08091280190912901833079
:10059000910531F190F481309105A9F0029709F0AD
:1005A00050C08091140190911501A0911601B09155
:1005B0001701CC96A11DB11D1EC08430910521F1FB
:1005C000059789F13EC08091140190911501A09189
:1005D0001601B0911701805F914FAF4FBF4F0BC015
:1005E0008091140190911501A0911601B09117010D
:1005F0000196A11DB11D8093140190931501A09344
:100600001601B09317011DC081E090E020912E01EA
:1006100030912F01232B11F080E090E090932F0177
:1006200080932E010EC081E090E020911201309164
:100630001301232B11F080E090E09093130180933D
:1006400012018091120190911301892B19F40E94DB
:10065000CF0002C00E947B002FEF89E698E1215075
:1006600080409040E1F700C00000FF91EF91BF9102
:10067000AF919F918F917F916F915F914F913F913A
:100680002F910F900FBE0F901F9018951F920F92F1
:100690000FB60F9211242F933F934F935F936F9355
:1006A0007F938F939F93AF93BF93EF93FF9380912B
:1006B000100190911101019711F40E94CF008091D7
:1006C0002C0190912D01009709F054C0E091280170
:1006D000F0912901E830F10508F047C0EC5CFF4FCC
:1006E0000C9417058091220190912301A09124017F
:1006F000B091250180519E40A109B1090BC08091A4
:10070000220190912301A0912401B0912501CC9761
:10071000A109B1098093220190932301A0932401A0
:10072000B093250122C08091220190912301A091D4
:100730002401B09125010197A109B109EBCF809166
:100740001C0190911D0101970CC080911C0190919A
:100750001D014E9706C080911C0190911D01885685
:10076000914090931D0180931C010E9453010E94AF
:10077000F5006CC0019709F069C080912801909143
:1007800029018330910531F190F481309105A9F070
:10079000029709F050C08091140190911501A09129
:1007A0001601B0911701CC97A109B1091EC0843080
:1007B000910521F1059789F13EC080911401909136
:1007C0001501A0911601B091170180519E40A10919
:1007D000B1090BC08091140190911501A0911601EF
:1007E000B09117010197A109B10980931401909369
:1007F0001501A0931601B09317011DC081E090E090
:1008000020912E0130912F01232B11F080E090E0F8
:1008100090932F0180932E010EC081E090E02091F3
:10082000120130911301232B11F080E090E090939E
:100830001301809312018091120190911301892B71
:1008400019F40E94CF0002C00E947B002FEF89E6BE
:1008500098E1215080409040E1F700C00000FF91F6
:10086000EF91BF91AF919F918F917F916F915F9128
:100870004F913F912F910F900FBE0F901F901895A1
:100880001F920F920FB60F9211242F933F934F9305
:100890005F936F937F938F939F93AF93BF93EF93E8
:1008A000FF938091220190912301A0912401B091A6
:1008B00025010196A11DB11D809322019093230172
:1008C000A0932401B09325010E9453010E94F500DA
:1008D0000E949701209112013091130121303105BE
:1008E00029F58091180190911901A0911A01B091F8
:1008F0001B014091140150911501609116017091F6
:100900001701481759076A077B0729F4309311012B
:10091000209310010BC00196A11DB11D80931801F9
:1009200090931901A0931A01B0931B01FF91EF91CD
:10093000BF91AF919F918F917F916F915F914F91F7
:100940003F912F910F900FBE0F901F90189580919F
:100950006C00886080936C0080916D008260809351
:100960006D000E9469000E945B00809110019091CF
:100970001101019711F40E94E0001999F6CF8091BE
:10098000100190911101019711F40E94CF00809104
:100990002C0190912D01009731F0019741F41092B4
:1009A0002D0110922C0110922901109228012FEF95
:1009B00089E698E1215080409040E1F700C00000B6
:1009C000D4CFAA1BBB1B51E107C0AA1FBB1FA61790
:1009D000B70710F0A61BB70B881F991F5A95A9F7E8
:1009E00080959095BC01CD010895A1E21A2EAA1B15
:1009F000BB1BFD010DC0AA1FBB1FEE1FFF1FA217CF
:100A0000B307E407F50720F0A21BB30BE40BF50BCB
:100A1000661F771F881F991F1A9469F76095709554
:100A2000809590959B01AC01BD01CF010895EE0F1B
:0E0A3000FF1F0590F491E02D0994F894FFCF7C
:0A0A3E0001000100010001000200A8
:00000001FF
