S0130000536D61727420436C6F636B2E73726563FE
S11300000C9443000C948A050C94C7050C9460006E
S11300100C9432070C9411060C9460000C9460004C
S11300200C9460000C9460000C9460000C945208D2
S11300300C9460000C9460000C9460000C946000BC
S11300400C9460000C9460000C9460000C946000AC
S11300500C9460000C9460000C9460000C9460009C
S11300600C9460000C9460003E064B065F066B0621
S11300707A06860692065E075E076B077F078B0784
S11300809A07A607B20711241FBECFEFD8E0DEBF40
S1130090CDBF11E0A0E0B1E0EEE1F3E102C00590D4
S11300A00D92A232B107D9F721E0A2E2B1E001C07A
S11300B01D92A234B207E1F70E94D9080C948D096D
S11300C00C940000672B09F073C08E30910511F475
S11300D0289808958F30910511F429980895803156
S11300E0910511F42A9808958131910511F42B9802
S11300F008958231910511F42C9808958331910566
S113010011F42D9808958930910511F42E980895CD
S11301108A30910511F42F9808958731910511F4CF
S1130120409808958831910511F4419808958931D2
S1130130910511F4429808958A31910511F4439878
S113014008958B31910511F4449808958C319105EB
S113015011F4459808958130910511F44698089555
S11301608230910511F4589808958330910511F463
S1130170599808958430910511F45A98089585305A
S1130180910511F45B9808958630910511F45C98FB
S113019008958B30910511F45D9808958C30910584
S11301A011F45E9808950D9709F073C05F9808954F
S11301B08E30910511F4289A08958F30910511F429
S11301C0299A08958031910511F42A9A089581316C
S11301D0910511F42B9A08958231910511F42C9A0A
S11301E008958331910511F42D9A0895893091056C
S11301F011F42E9A08958A30910511F42F9A0895D6
S11302008731910511F4409A08958831910511F4CC
S1130210419A08958931910511F4429A08958A31D9
S1130220910511F4439A08958B31910511F4449A80
S113023008958C31910511F4459A08958130910502
S113024011F4469A08958230910511F4589A08954C
S11302508330910511F4599A08958430910511F46D
S11302605A9A08958530910511F45B9A0895863061
S1130270910511F45C9A08958B30910511F45D9AFF
S113028008958C30910511F45E9A08950D9709F440
S11302905F9A0895CF93C82F80FF03C061E070E098
S11302A002C060E070E086E090E00E946200C1FF5E
S11302B003C061E070E002C060E070E08BE090E0B9
S11302C00E946200C2FF03C061E070E002C060E00F
S11302D070E08CE090E00E946200C3FF03C061E024
S11302E070E002C060E070E08DE090E0CF910C948B
S11302F06200CF93C82F60E070E08FE090E00E942E
S113030062008C2F0E944A0161E070E08EE090E070
S11303100E946200000060E070E08EE090E00E94C5
S113032062000000CF91089580E00E94790181E08D
S11303300C947901CF93C62F813011F480E803C067
S1130340823059F480EC8C0F82958F700E94790171
S11303508C2F8F70CF910C947901CF9108958FEFEA
S11303608AB984B980E00E944A0186E08A95F1F74F
S113037000C083E00E94790100C000C0000083E057
S11303800E94790183E08A95F1F700C083E00E941E
S1130390790182E00E94790182E00E94790188E07B
S11303A00E94790180E00E9479018CE00E94790129
S11303B080E00E94790186E00C947901CF93C82FE4
S11303C061E070E08FE090E00E9462008C2F8295E3
S11303D08F700E944A0161E070E08EE090E00E941C
S11303E06200000060E070E08EE090E00E94620035
S11303F000008C2F8F700E944A0161E070E08EE053
S113040090E00E946200000060E070E08EE090E006
S11304100E9462000000CF910895CF93DF93EC0116
S11304208991882319F00E94DE01FACFDF91CF91E0
S11304300895CF93DF93CDB7DEB728970FB6F8941E
S1130440DEBF0FBECDBF0E949A014AE050E0BE015C
S11304506F5F7F4F80910401909105010E944D09C7
S11304604AE050E0BE01695F7F4F809102019091A4
S113047003010E944D094AE050E0BE016B5F7F4FCB
S113048080910601909107010E944D0989810E9483
S1130490DE018A810E94DE018B810E94DE018C8153
S11304A00E94DE018FE20E94DE018F810E94DE0144
S11304B088850E94DE018FE20E94DE018D810E9408
S11304C0DE018E810E94DE0128960FB6F894DEBF0D
S11304D00FBECDBFDF91CF910895CF93DF9300D0AE
S11304E000D000D0CDB7DEB70E949A014AE050E0B8
S11304F0BE016B5F7F4F80910001909101010E94CA
S11305004D094AE050E0BE016D5F7F4F80912401A8
S1130510909125010E944D094AE050E0BE016F5FB1
S11305207F4F80912201909123010E944D098D817A
S11305300E94DE018E810E94DE018AE30E94DE01B8
S11305408B810E94DE018C810E94DE018AE30E947D
S1130550DE0189810E94DE018A810E94DE0180E23F
S11305600E94DE0180913E0190913F01892B19F494
S113057080E191E002C083E191E00E940D0280E2FB
S11305800E94DE018091280190912901019719F4BC
S113059086E191E002C089E191E00E940D02269675
S11305A00FB6F894DEBF0FBECDBFDF91CF91089593
S11305B0CF93DF9300D000D000D0CDB7DEB70E9438
S11305C09A014AE050E0BE016B5F7F4F80910C01BD
S11305D090910D010E944D094AE050E0BE016D5F0B
S11305E07F4F80913001909131010E944D094AE082
S11305F050E0BE016F5F7F4F80912E0190912F01DB
S11306000E944D098D810E94DE018E810E94DE01CF
S11306108DE191E00E940D028B810E94DE018C81AC
S11306200E94DE018DE191E00E940D0289810E9409
S1130630DE018A810E94DE018FE191E00E940D02B9
S11306408091400190914101892B19F480E191E05E
S113065002C083E191E00E940D0280E20E94DE016B
S11306608091280190912901019719F48CEF0E943F
S1130670DE0126960FB6F894DEBF0FBECDBFDF9124
S1130680CF910895CF93DF9300D01F92CDB7DEB7FB
S11306900E949A014AE050E0BE016F5F7F4F809153
S11306A03601909137010E944D0989810E94DE0133
S11306B08A810E94DE018B810E94DE018FED0E94FF
S11306C0DE0183E40E94DE010F900F900F90DF9112
S11306D0CF9108950E94940160E070E081E090E081
S11306E00E9419026BE070E081E090E00E944203F6
S11306F060E070E082E090E00C94D8020E949401E3
S113070060E070E081E090E00E9419026BE070E02C
S113071081E090E00E94420360E070E082E090E0BB
S11307200C946D02ECE7F0E08081806C8083808122
S113073085608083EAE7F0E08081876A808308959A
S113074010928000E1E8F0E080818C60808388E092
S113075095E09093890080938800EFE6F0E0808133
S113076082608083789408958F929F92AF92BF9213
S1130770CF92DF92EF92FF9281E090E09093290173
S113078080932801C0902A01D0902B01E0902C0185
S1130790F0902D01C701B60120E13EE040E050E0B9
S11307A00E942509CA01B9012DE030E040E050E083
S11307B00E9425097093010160930001C701B601ED
S11307C02CE330E040E050E00E9425098DE3882EC0
S11307D0912CA12CB12CCA01B901A50194010E944C
S11307E025097093250160932401C701B601A50171
S11307F094010E9425097093230160932201FF90C4
S1130800EF90DF90CF90BF90AF909F908F9008951E
S113081010922701109226011092290110922801AA
S11308202B9808952B9A08958F929F92AF92BF921E
S1130830CF92DF92EF92FF920F931F936091320158
S113084070913301809134019091350121E831E5B3
S113085041E050E00E9425096B017C016093320164
S113086070933301809334019093350120E13EE08D
S113087040E050E00E942509CA01B9012CE030E0B3
S113088040E050E00E9425096F5F7F4F8F4F9F4FDC
S113089080900C0190900D01A12CB12C6815790564
S11308A08A059B05D9F02DE030E040E050E00E943D
S11308B0250970930D0160930C016C30710571F47E
S11308C081E090E02091400130914101232B11F00F
S11308D080E090E090934101809340018CE3882E66
S11308E0912CA12CB12CC701B601A50194010E9441
S11308F02509CA01B901A50194010E942509209185
S1130900300130913101890120E030E06017710736
S11309108207930741F0A50194010E942509709371
S1130920310160933001C701B6012CE330E040E0AF
S113093050E00E94250970932F0160932E011F91AE
S11309400F91FF90EF90DF90CF90BF90AF909F906A
S11309508F900895CF92DF92EF92FF9260913201CF
S113096070913301809134019091350120E831E593
S113097041E050E00E94250980910801909109010D
S1130980A0910A01B0910B01BC01CD01620F731F4C
S1130990841F951F20EE33E24BE050E00E942509AE
S11309A06B017C01609308017093090180930A0133
S11309B090930B0128E631E040E050E00E942509C5
S11309C03093050120930401C701B6012EE130E004
S11309D040E050E00E9425096B017C01CA01B90185
S11309E02CE030E040E050E00E9425096F5F7F4F2B
S11309F070930301609302018FEFC81AD80AD09252
S1130A000701C0920601FF90EF90DF90CF90089508
S1130A108F929F92AF92BF92CF92DF92EF92FF920A
S1130A2060912A0170912B0180912C0190912D01EC
S1130A3020E831E541E050E00E9425096B017C018A
S1130A4060932A0170932B0180932C0190932D01C4
S1130A5020E13EE040E050E00E94250949015A01AE
S1130A60CA01B9012CE030E040E050E00E942509C1
S1130A706F5F7F4F7093010160930001C501B40162
S1130A802DE030E040E050E00E9425096C30710513
S1130A908105910571F481E090E020913E0130914F
S1130AA03F01232B11F080E090E090933F0180936D
S1130AB03E018CE3882E912CA12CB12CC701B601E8
S1130AC0A50194010E9425096B017C01CA01B901A9
S1130AD0A50194010E9425097093250160932401C6
S1130AE0D0922301C0922201FF90EF90DF90CF902B
S1130AF0BF90AF909F908F90089580913C0190910A
S1130B003D01009711F40C946A03019711F40C94BD
S1130B107E0308951F920F920FB60F9211242F9304
S1130B203F934F935F936F937F938F939F93AF9371
S1130B30BF93EF93FF938091260190912701019732
S1130B4011F40E94080480913C0190913D010196AA
S1130B5060910E0170910F010E94110990933D0163
S1130B6080933C011092390110923801FF91EF916A
S1130B70BF91AF919F918F917F916F915F914F91B1
S1130B803F912F910F900FBE0F901F9018951F92B9
S1130B900F920FB60F9211242F933F934F935F93AD
S1130BA06F937F938F939F93AF93BF93EF93FF9331
S1130BB08091260190912701019711F40E94080465
S1130BC080913C0190913D01009729F0019749F4EF
S1130BD086E090E002C088E090E090933B0180932F
S1130BE03A018091380190913901019660913A015E
S1130BF070913B010E94110990933901809338014F
S1130C00FF91EF91BF91AF919F918F917F916F91E0
S1130C105F914F913F912F910F900FBE0F901F90B6
S1130C2018951F920F920FB60F9211242F933F9392
S1130C304F935F936F937F938F939F93AF93BF93E0
S1130C40EF93FF938091260190912701019711F46E
S1130C500E94080480913C0190913D01009709F0A5
S1130C607AC0E0913801F09139013197E730F1050C
S1130C7008F06CC0EC5CFF4F0C9447098091320182
S1130C8090913301A0913401B0913501805F914F6F
S1130C90AF4FBF4F0BC08091320190913301A091AF
S1130CA03401B0913501CC96A11DB11D8093320160
S1130CB090933301A0933401B093350147C08091E0
S1130CC0320190913301A0913401B0913501019624
S1130CD0A11DB11DEBCF81E090E020914001309146
S1130CE04101232B11F080E090E090934101809327
S1130CF040012CC08091080190910901A0910A0142
S1130D00B0910B010196A11DB11D18C0809108017D
S1130D1090910901A0910A01B0910B014E96A11D79
S1130D20B11D0CC08091080190910901A0910A01A4
S1130D30B0910B0188599E4FAF4FBF4F809308016C
S1130D4090930901A0930A01B0930B010E94AA0495
S1130D500E9414046EC0019709F06BC080913801A1
S1130D60909139018330910531F190F481309105EE
S1130D70A9F0029709F050C080912A0190912B01AB
S1130D80A0912C01B0912D01CC96A11DB11D1EC0C6
S1130D908430910521F1059789F13EC080912A01A3
S1130DA090912B01A0912C01B0912D01805F914F66
S1130DB0AF4FBF4F0BC080912A0190912B01A0919E
S1130DC02C01B0912D010196A11DB11D80932A0122
S1130DD090932B01A0932C01B0932D011DC081E0B1
S1130DE090E020913E0130913F01232B11F080E0EF
S1130DF090E090933F0180933E010EC081E090E02B
S1130E002091280130912901232B11F080E090E0FA
S1130E1090932901809328018091280190912901C0
S1130E20892B19F40E94080402C00E94B4030E9492
S1130E3008050E947D058FE59AEE0197F1F700C041
S1130E400000FF91EF91BF91AF919F918F917F919E
S1130E506F915F914F913F912F910F900FBE0F9023
S1130E601F9018951F920F920FB60F9211242F9373
S1130E703F934F935F936F937F938F939F93AF931E
S1130E80BF93EF93FF9380912601909127010197DF
S1130E9011F40E94080480913C0190913D01009757
S1130EA009F079C0E0913801F0913901E830F10599
S1130EB008F06CC0E55CFF4F0C9447098091320147
S1130EC090913301A0913401B091350180519E403D
S1130ED0A109B1090BC08091320190913301A09115
S1130EE03401B0913501CC97A109B1098093320145
S1130EF090933301A0933401B093350147C080919E
S1130F00320190913301A0913401B09135010197E0
S1130F10A109B109EBCF81E090E02091400130912B
S1130F204101232B11F080E090E0909341018093E4
S1130F3040012CC08091080190910901A0910A01FF
S1130F40B0910B010197A109B10918C08091080162
S1130F5090910901A0910A01B0910B014E97A1094A
S1130F60B1090CC08091080190910901A0910A0176
S1130F70B0910B0188569140A109B10980930801F1
S1130F8090930901A0930A01B0930B010E94AA0453
S1130F900E9414046EC0019709F06BC0809138015F
S1130FA0909139018330910531F190F481309105AC
S1130FB0A9F0029709F050C080912A0190912B0169
S1130FC0A0912C01B0912D01CC97A109B1091EC0AB
S1130FD08430910521F1059789F13EC080912A0161
S1130FE090912B01A0912C01B0912D0180519E4034
S1130FF0A109B1090BC080912A0190912B01A09104
S11310002C01B0912D010197A109B10980932A0106
S113101090932B01A0932C01B0932D011DC081E06E
S113102090E020913E0130913F01232B11F080E0AC
S113103090E090933F0180933E010EC081E090E0E8
S11310402091280130912901232B11F080E090E0B8
S1131050909329018093280180912801909129017E
S1131060892B19F40E94080402C00E94B4030E9450
S113107008050E947D058FE59AEE0197F1F700C0FF
S11310800000FF91EF91BF91AF919F918F917F915C
S11310906F915F914F913F912F910F900FBE0F90E1
S11310A01F9018951F920F920FB60F9211240F9351
S11310B01F932F933F934F935F936F937F938F93DC
S11310C09F93AF93BF93EF93FF93809132019091DD
S11310D03301A0913401B0913501AC01BD014F5FE2
S11310E05F4F6F4F7F4F40933201509333016093B2
S11310F03401709335018F579145A140B10980386F
S11311009145A140B10510F40E94AA040E94140460
S1131110809128019091290181309105C9F40091B1
S11311202A0110912B0120912C0130912D01409125
S113113032015091330160913401709135010417EB
S113114015072607370721F490932701809326017A
S11311500E947D05FF91EF91BF91AF919F918F9177
S11311607F916F915F914F913F912F911F910F91BB
S11311700F900FBE0F901F901895349BFECF809157
S1131180260190912701019711F40E94080480918F
S11311903C0190913D01009731F0019741F4109288
S11311A03D0110923C0110923901109238010C94C7
S11311B07D050E94AF010E947D050E94A0030E944C
S11311C09203239A3B983C98519852985398439A87
S11311D0449A599A5A9A5B9A8091680086608093DF
S11311E0680080916C00886080936C0080916D0031
S11311F0826080936D00809169008A6080936900A9
S11312008DB383608DBB78948091260190912701E2
S1131210019711F40E9412043499F6CF0E94BD087C
S1131220F3CFAA1BBB1B51E107C0AA1FBB1FA61704
S1131230B70710F0A61BB70B881F991F5A95A9F77B
S113124080959095BC01CD010895A1E21A2EAA1BA8
S1131250BB1BFD010DC0AA1FBB1FEE1FFF1FA21762
S1131260B307E407F50720F0A21BB30BE40BF50B5F
S1131270661F771F881F991F1A9469F760957095E8
S1131280809590959B01AC01BD01CF010895EE0FAF
S1131290FF1F0590F491E02D09944532510520F487
S11312A0423010F00C945809FB011082CB010895D0
S11312B0BB274A3031F4992322F4BDE290958195FD
S11312C09F4F0C946409BB27FB015527AA27880F5D
S11312D0991FAA1FA41710F0A41B83955051B9F7A6
S11312E0A05DAA3308F0A95DA193009779F7B11125
S11312F0B1931192CB010C947D09DC01FC01672FA1
S113130071917723E1F7329704C07C916D937083D8
S11113106291AE17BF07C8F30895F894FFCF9B
S113131E01000600E2070100D0150B0001000200D7
S113132E414D00504D004F4E004F4646003A0020AE
S105133E0000A9
S9030000FC
