:100000000C943C000C94F3040C943B050C945900A4
:100010000C9498060C9490050C9459000C9459007B
:100020000C9459000C9459000C9459000C949607A8
:100030000C9459000C9459000C9459000C945900DC
:100040000C9459000C9459000C9459000C945900CC
:100050000C9459000C9459000C9459000C945900BC
:100060000C9459000C945900C606C606D306E70640
:100070000907F306F906FF0611241FBECFEFD8E0EB
:10008000DEBFCDBF11E0A0E0B1E0E0E9F1E102C0E8
:1000900005900D92A832B107D9F721E0A8E2B1E0AE
:1000A00001C01D92AE34B207E1F70E94FD070C9427
:1000B000C6080C940000672B09F073C08E309105C0
:1000C00011F4289808958F30910511F42998089516
:1000D0008031910511F42A9808958131910511F428
:1000E0002B9808958231910511F42C98089583314D
:1000F000910511F42D9808958930910511F42E98E9
:1001000008958A30910511F42F980895873191054B
:1001100011F4409808958831910511F4419808959B
:100120008931910511F4429808958A31910511F4AD
:10013000439808958B31910511F4449808958C31BA
:10014000910511F4459808958130910511F4469870
:1001500008958230910511F45898089583309105DF
:1001600011F4599808958430910511F45A9808951E
:100170008530910511F45B9808958630910511F44E
:100180005C9808958B30910511F45D9808958C303A
:10019000910511F45E9808950D9709F073C05F986A
:1001A00008958E30910511F4289A08958F309105A5
:1001B00011F4299A08958031910511F42A9A08952D
:1001C0008131910511F42B9A08958231910511F432
:1001D0002C9A08958331910511F42D9A0895893050
:1001E000910511F42E9A08958A30910511F42F9AF1
:1001F00008958731910511F4409A08958831910549
:1002000011F4419A08958931910511F4429A0895A3
:100210008A31910511F4439A08958B31910511F4B7
:10022000449A08958C31910511F4459A08958130CE
:10023000910511F4469A08958230910511F4589A67
:1002400008958330910511F4599A089584309105E9
:1002500011F45A9A08958530910511F45B9A089526
:100260008630910511F45C9A08958B30910511F454
:100270005D9A08958C30910511F45E9A08950D975A
:1002800009F45F9A0895CF93C82F80FF03C061E0FF
:1002900070E002C060E070E086E090E00E945B00E9
:1002A000C1FF03C061E070E002C060E070E08BE07D
:1002B00090E00E945B00C2FF03C061E070E002C0FA
:1002C00060E070E08CE090E00E945B00C3FF03C040
:1002D00061E070E002C060E070E08DE090E0CF91FE
:1002E0000C945B00CF93C82F60E070E08FE090E04B
:1002F0000E945B008C2F0E94430161E070E08EE061
:1003000090E00E945B0089EF90E00197F1F700C058
:10031000000060E070E08EE090E00E945B0089EFFA
:1003200090E00197F1F700C00000CF910895CF93BE
:10033000C62F813011F480E803C0823059F480EC7C
:100340008C0F82958F700E9472018C2F8F70CF91CD
:100350000C947201CF9108958FEF8AB984B980E02F
:100360000E94430187E893E10197F1F700C0000084
:1003700083E00E94720181EE94E00197F1F700C0E2
:10038000000083E00E9472018DEB9AE00197F1F783
:1003900000C0000083E00E94720182E00E947201AE
:1003A00082E00E94720188E00E94720180E00E9457
:1003B00072018CE00E94720180E00E94720186E06E
:1003C0000C947201CF93C82F61E070E08FE090E051
:1003D0000E945B008C2F82958F700E94430161E028
:1003E00070E08EE090E00E945B0089EF90E0019762
:1003F000F1F700C0000060E070E08EE090E00E9445
:100400005B0089EF90E00197F1F700C000008C2FAE
:100410008F700E94430161E070E08EE090E00E94E6
:100420005B0089EF90E00197F1F700C0000060E009
:1004300070E08EE090E00E945B0089EF90E0019711
:10044000F1F700C00000CF910895CF93DF93EC0146
:100450008991882319F00E94E201FACFDF91CF91B0
:100460000895ECE7F0E08081806C80838081856076
:100470008083EAE7F0E08081876A80830895E1E87D
:10048000F0E080818C60808384EF8093890083E238
:1004900080938800EFE6F0E080818260808378942A
:1004A00008958F929F92AF92BF92CF92DF92EF9278
:1004B000FF9281E090E09093310180933001C090F1
:1004C0003201D0903301E0903401F0903501C70142
:1004D000B60120E13EE040E050E00E945E08CA0123
:1004E000B9012DE030E040E050E00E945E087093DA
:1004F0002D0160932C01C701B6012CE330E040E0F0
:1005000050E00E945E088DE3882E912CA12CB12C26
:10051000CA01B901A50194010E945E0870932B01E4
:1005200060932A01C701B601A50194010E945E08EB
:100530007093290160932801FF90EF90DF90CF9096
:10054000BF90AF909F908F90089510922F011092BE
:100550002E0110923101109230011092360110924A
:10056000370110923801109239010895289A2FEF1F
:1005700083EC99E0215080409040E1F700C00000FA
:1005800028982FEF83EC99E0215080409040E1F7CC
:1005900000C0000008958F929F92AF92BF92CF92B9
:1005A000DF92EF92FF926091400170914101809142
:1005B00042019091430120E831E541E050E00E9482
:1005C0005E086B017C016093400170934101809350
:1005D00042019093430120E13EE040E050E00E9460
:1005E0005E08CA01B9012CE030E040E050E00E9412
:1005F0005E086F5F7F4F7093070160930601C7012C
:10060000B6012CE330E040E050E00E945E088DE34C
:10061000882E912CA12CB12CCA01B901A5019401FD
:100620000E945E0870933F0160933E01C701B601CE
:10063000A50194010E945E0870933D0160933C0106
:10064000FF90EF90DF90CF90BF90AF909F908F90F2
:100650000895EF92FF920F931F9360914001709164
:10066000410180914201909143012FE731E541E042
:1006700050E00E945E0880913A0190913B0179011F
:100680008A01E80EF91E011D111DC801B70129E6F6
:1006900031E040E050E00E945E089B0170933B0116
:1006A00060933A011092030110920201CB016DE0B8
:1006B00070E00E944A087093010160930001C90133
:1006C0006FE170E00E944A08909305018093040155
:1006D0001F910F91FF90EF90089580917A008064B0
:1006E00080937A0080917A0086FDFCCF809178001B
:1006F0009091790090934501809344010895EF9281
:10070000FF920F931F93CF93DF93CDB7DEB761971F
:100710000FB6F894DEBF0FBECDBF80914A01909115
:100720004B01009709F0A8C0E0900001F090010192
:1007300000910401109105014AE050E0BE016F5F95
:100740007F4F80910201909103010E9486084AE048
:1007500050E0BE01605F7F4FC7010E9486084AE0FB
:1007600050E0BE01625F7F4FC8010E94860860E0D2
:1007700070E081E090E00E949701CE0101960E9416
:1007800025028AE091E00E942502CE0140960E9457
:1007900025028AE091E00E942502CE010E960E9479
:1007A00025028EE191E00E94250280913001909116
:1007B0003101019721F48CE091E00E9425028EE145
:1007C00091E00E942502CE0105960E94250280E15B
:1007D00091E00E94250283E191E00E942502E090D1
:1007E0003E01F0903F0100913C0110913D014AE033
:1007F00050E0BE01645F7F4F809106019091070138
:100800000E9486084AE050E0BE01665F7F4FC70144
:100810000E9486084AE050E0BE01685F7F4FC80131
:100820000E94860860E070E082E090E00E949701FC
:10083000CE010C960E94250285E191E00E942502DE
:10084000CE010A960E94250285E191E00E942502D0
:10085000CE0108960E9425028EE191E00E942502B9
:1008600080914C0190914D01892B19F487E191E021
:10087000ABC08AE191E0A8C0019709F0A7C0E09061
:100880000001F090010100910401109105014AE07E
:1008900050E0BE016F5F7F4F809102019091030194
:1008A0000E9486084AE050E0BE01605F7F4FC701AA
:1008B0000E9486084AE050E0BE01625F7F4FC80197
:1008C0000E94860860E070E081E090E00E9497015D
:1008D000CE0101960E9425028AE091E00E94250245
:1008E000CE0140960E9425028AE091E00E942502F6
:1008F000CE010E960E9425028DE191E00E94250214
:10090000CE0105960E94250280E191E00E94250219
:1009100083E191E00E942502E0902A01F0902B01F2
:1009200000912801109129014AE050E0BE01645F66
:100930007F4F80912C0190912D010E9486084AE002
:1009400050E0BE01665F7F4FC7010E9486084AE003
:1009500050E0BE01685F7F4FC8010E94860860E0DA
:1009600070E082E090E00E949701CE010C960E9418
:10097000250285E191E00E942502CE010A960E949F
:10098000250285E191E00E942502CE0108960E9491
:1009900025028EE191E00E94250280914C01909108
:1009A0004D01892B19F487E191E002C08AE191E0C1
:1009B0000E94250280E291E00E9425028AE091E0F7
:1009C0000E94250283E291E00E94250261960FB603
:1009D000F894DEBF0FBECDBFDF91CF911F910F9175
:1009E000FF90EF9008951F920F920FB60F9211246F
:1009F0002F933F934F935F936F937F938F939F9327
:100A0000AF93BF93EF93FF9380912E0190912F01AD
:100A1000019721F40E94A5020E947F0380914A0160
:100A200090914B01019660910801709109010E941B
:100A30004A0890934B0180934A011092470110920B
:100A400046012FEF89E698E1215080409040E1F780
:100A500000C00000FF91EF91BF91AF919F918F91E6
:100A60007F916F915F914F913F912F910F900FBEAA
:100A70000F901F9018951F920F920FB60F9211248E
:100A80002F933F934F935F936F937F938F939F9396
:100A9000AF93BF93EF93FF9380912E0190912F011D
:100AA000019721F40E94A5020E947F0380914A01D0
:100AB00090914B01009729F0019749F486E090E06E
:100AC00002C088E090E090934901809348018091B2
:100AD000460190914701019660914801709149014A
:100AE0000E944A0890934701809346012FEF89E6C0
:100AF00098E1215080409040E1F700C00000FF9154
:100B0000EF91BF91AF919F918F917F916F915F9185
:100B10004F913F912F910F900FBE0F901F901895FE
:100B20001F920F920FB60F9211242F933F934F9362
:100B30005F936F937F938F939F93AF93BF93EF9345
:100B4000FF9380912E0190912F01019721F40E9433
:100B5000A5020E947F0380914A0190914B0100976A
:100B600009F05EC080914601909147018330910564
:100B700071F190F481309105E9F0029709F04BC0D2
:100B80008091400190914101A0914201B0914301B7
:100B9000CC96A11DB11D26C08630910561F187302C
:100BA000910579F10597B9F580913A0190913B0152
:100BB00001962DC08091400190914101A091420188
:100BC000B0914301805F914FAF4FBF4F0BC08091F9
:100BD000400190914101A0914201B09143010196E1
:100BE000A11DB11D8093400190934101A09342014A
:100BF000B093430110C080913A0190913B014E9611
:100C000006C080913A0190913B0188599E4F909384
:100C10003B0180933A010E9429030E94CB026CC0E1
:100C2000019709F069C08091460190914701833096
:100C3000910531F190F481309105A9F0029709F006
:100C400050C08091320190913301A0913401B09154
:100C50003501CC96A11DB11D1EC08430910521F136
:100C6000059789F13EC08091320190913301A091A6
:100C70003401B0913501805F914FAF4FBF4F0BC032
:100C80008091320190913301A0913401B0913501EE
:100C90000196A11DB11D8093320190933301A09361
:100CA0003401B09335011DC081E090E020914C01EA
:100CB00030914D01232B11F080E090E090934D0195
:100CC00080934C010EC081E090E020913001309182
:100CD0003101232B11F080E090E09093310180935B
:100CE00030018091300190913101892B19F40E94DB
:100CF000A50202C00E9451020E947F032FEF89E6E5
:100D000098E1215080409040E1F700C00000FF9141
:100D1000EF91BF91AF919F918F917F916F915F9173
:100D20004F913F912F910F900FBE0F901F901895EC
:100D30001F920F920FB60F9211242F933F934F9350
:100D40005F936F937F938F939F93AF93BF93EF9333
:100D5000FF9380912E0190912F01019721F40E9421
:100D6000A5020E947F0380914A0190914B01009758
:100D700009F054C0E0914601F0914701E830F105D7
:100D800008F047C0EC5CFF4F0C9480088091400154
:100D900090914101A0914201B091430180519E4048
:100DA000A109B1090BC08091400190914101A0912E
:100DB0004201B0914301CC97A109B1098093400150
:100DC00090934101A0934201B093430122C08091CE
:100DD000400190914101A0914201B09143010197DE
:100DE000A109B109EBCF80913A0190913B010197A4
:100DF0000CC080913A0190913B014E9706C08091C2
:100E00003A0190913B018856914090933B01809329
:100E10003A010E9429030E94CB026CC0019709F09D
:100E200069C080914601909147018330910531F16D
:100E300090F481309105A9F0029709F050C080919B
:100E4000320190913301A0913401B0913501CC97DA
:100E5000A109B1091EC08430910521F1059789F1DE
:100E60003EC08091320190913301A0913401B09144
:100E7000350180519E40A109B1090BC0809132011A
:100E800090913301A0913401B09135010197A109EE
:100E9000B1098093320190933301A0933401B09350
:100EA00035011DC081E090E020914C0130914D0151
:100EB000232B11F080E090E090934D0180934C0142
:100EC0000EC081E090E02091300130913101232B60
:100ED00011F080E090E09093310180933001809197
:100EE000300190913101892B19F40E94A50202C0B2
:100EF0000E9451020E947F032FEF89E698E1215062
:100F000080409040E1F700C00000FF91EF91BF9159
:100F1000AF919F918F917F916F915F914F913F9191
:100F20002F910F900FBE0F901F9018951F920F9248
:100F30000FB60F9211242F933F934F935F936F93AC
:100F40007F938F939F93AF93BF93EF93FF93809182
:100F5000400190914101A0914201B091430101965D
:100F6000A11DB11D8093400190934101A0934201C6
:100F7000B09343010E9429030E94CB020E946D039B
:100F800020913001309131012130310529F58091D6
:100F9000360190913701A0913801B091390140910B
:100FA000320150913301609134017091350148173D
:100FB00059076A077B0729F430932F0120932E01EC
:100FC0000BC00196A11DB11D80933601909337018E
:100FD000A0933801B0933901FF91EF91BF91AF9188
:100FE0009F918F917F916F915F914F913F912F9141
:100FF0000F900FBE0F901F9018950E943F020E9405
:1010000031020E94AC018091680086608093680084
:1010100080916C00886080936C0080916D0082608C
:1010200080936D00809169008A60809369008DB320
:1010300083608DBB80912E0190912F01019711F457
:101040000E94B6021999F6CF80912E0190912F013E
:10105000019721F40E94A5020E947F0380914A011A
:1010600090914B01009731F0019741F410924B01A0
:1010700010924A0110924701109246010E947F038C
:101080002FEF89E698E1215080409040E1F700C0C1
:101090000000D0CFAA1BBB1B51E107C0AA1FBB1F7A
:1010A000A617B70710F0A61BB70B881F991F5A95F4
:1010B000A9F780959095BC01CD010895A1E21A2E63
:1010C000AA1BBB1BFD010DC0AA1FBB1FEE1FFF1FEC
:1010D000A217B307E407F50720F0A21BB30BE40B3C
:1010E000F50B661F771F881F991F1A9469F7609583
:1010F0007095809590959B01AC01BD01CF0108953D
:10110000EE0FFF1F0590F491E02D09944532510533
:1011100020F4423010F00C949108FB011082CB01B6
:101120000895BB274A3031F4992322F4BDE290950B
:1011300081959F4F0C949D08BB27FB015527AA273B
:10114000880F991FAA1FA41710F0A41B8395505154
:10115000B9F7A05DAA3308F0A95DA193009779F7CC
:10116000B111B1931192CB010C94B608DC01FC01D2
:10117000672F71917723E1F7329704C07C916D93CB
:1011800070836291AE17BF07C8F30895F894FFCF3C
:10119000010001000100010002002F00E28FB000F9
:1011A000C2B00043003A00414D00504D00202000E5
:0811B0004F4E004F46460000BF
:00000001FF
