S0130000536D61727420436C6F636B2E73726563FE
S11300000C9434000C9446000C9446000C94460066
S11300100C9446000C9446000C9446000C94460044
S11300200C9446000C9446000C9446000C94460034
S11300300C9446000C9446000C945A000C94460010
S11300400C9446000C9446000C9446000C94460014
S11300500C9446000C9446000C9446000C94460004
S11300600C9446000C94460011241FBECFEFD8E038
S1130070DEBFCDBF21E0A0E0B1E001C01D92A630FB
S1130080B207E1F70E9457000C9493000C9400000F
S113009084B5826084BD8CE387BD85B5816085BDF0
S11300A0EEE6F0E0808182608083789408950E9477
S11300B04800FFCF1F920F920FB60F9211248F9317
S11300C09F93809100019091010101968C339105D9
S11300D029F090930101809300011EC01092010148
S11300E010920001809102019091030101968C33DA
S11300F0910529F090930301809302010DC01092A1
S1130100030110920201809104019091050101966E
S113011090930501809304019F918F910F900FBEDE
S10D01200F901F901895F894FFCF7C
S9030000FC
